:100000000C9434000C9451000C9451000C94510049
:100010000C9451000C9451000C9451000C9451001C
:100020000C9451000C9451000C9451000C942E0728
:100030000C9451000C9451000C9475000C945100D8
:100040000C9451000C9451000C94B0040C94E204F4
:100050000C9451000C9451000C9451000C945100DC
:100060000C9451000C94510011241FBECFEFD8E026
:10007000DEBFCDBF12E0A0E0B1E0E0E1F9E102C0F7
:1000800005900D92AC3AB107D9F723E0ACEAB2E0A3
:1000900001C01D92A13FB207E1F70E94B2080C9483
:1000A000860C0C940000CF93DF93FC01268522235D
:1000B000C9F02150268730E0D901AA0FBB1FAE0F2F
:1000C000BF1F0D90BC91A02D2E0F3F1FE9012A8567
:1000D00014968D919C91D2E12D9F800D911D11243C
:1000E00091878087DF91CF9108951F920F920FB66D
:1000F0000F9211242F933F934F935F936F937F93AE
:100100008F939F93AF93BF93EF93FF938091DF0300
:100110009091E003DC01ED91FC910995FF91EF9145
:10012000BF91AF919F918F917F916F915F914F910F
:100130003F912F910F900FBE0F901F9018959B012C
:10014000AC01ABE8B8E10E94A10920E43CE940E041
:1001500050E00E947309CA01B90108954F925F925D
:100160006F927F928F929F92AF92BF92CF92DF92C7
:10017000EF92FF920F931F93CF932B013C01C22F5D
:1001800080910201841731F040930201442309F465
:1001900045C0449A2091D5013091D6014091D701B4
:1001A0005091D801ABE8B8E10E94A10920E4822E69
:1001B0002CE9922EA12CB12CA50194010E94730967
:1001C00069012091D9013091DA014091DB01509110
:1001D000DC01ABE8B8E10E94A109A50194010E94ED
:1001E000730989019601A601C301B2010E94AF05FE
:1001F000C11104C08091E1038111FCCFCF911F9107
:100200000F91FF90EF90DF90CF90BF90AF909F90B5
:100210008F907F906F905F904F9008954498BACFE1
:1002200080E480937C0083E880937A000895809135
:100230007A00806480937A0080917A0086FDFCCFFA
:10024000809178009091790008950E941701803282
:10025000910580F08E3A910578F08D3521E0920776
:1002600068F08B3122E0920758F08D31934050F0C6
:1002700080E0089581E0089582E0089583E0089584
:1002800084E0089585E008958F708A3010F4805DD1
:100290000895895A0895FC01718360831286168639
:1002A000DB0114968D919C91918780870895CF935F
:1002B000DF93EC010E94F60360E080E00E946F048F
:1002C0008E85882349F181EE91E00E947A04EE85C3
:1002D000F0E0EE0FFF1FEC0FFD1F0190F081E02D0D
:1002E000808191810E947A0461E080E00E946F0425
:1002F00089EE91E00E947A04E885F98580819181F8
:100300000E947A0461E08EE00E946F048CEE91E01E
:10031000DF91CF910C947A0485EE91E0D6CF1F93B4
:10032000CF93DF93EC01809101018823C1F08150CC
:100330008093010180E09A899430A1F48AEF809340
:1003400001011A8A81E891E09093E0038093DF0332
:1003500083E891E0DF91CF911F910C9457010E94A7
:100360002501E9CF853009F054C097FF35C09F774C
:100370009A8B0E94F60360E080E00E946F048FEE8B
:1003800091E09F938F930E94860461E080E00E9439
:100390006F048D858F938C858F938DEF91E09F9364
:1003A0008F930E9486040F900F900F900F900F90E4
:1003B0000F908AEF809301018A89813009F47AC015
:1003C00008F449C0823009F4A2C0833009F4DCC0CB
:1003D000DF91CF911F91089590689A8B0E94F60348
:1003E00060E080E00E946F048CE092E09F938F9326
:1003F0000E94860461E080E00E946F0489E192E03F
:100400009F938F930E9486040F900F900F900F90F0
:10041000D0CF882389F20E94F60360E080E00E943A
:100420006F048AE292E09F938F930E94860461E0BA
:1004300080E00E946F0488E392E09F938F930E9474
:10044000860484E08A8B8AEF809301010F900F90DD
:100450000F900F90BDCF8A859B859D878C870E94CA
:10046000F60360E080E00E946F048FEE91E09F93BE
:100470008F930E94860461E080E00E946F048D8566
:100480008F938C858F938DEF91E09F938F930E9434
:1004900086048E819F81A885B9858E879F87A88BCA
:1004A000B98B83E08A8B0F900F900F900F900F9075
:1004B0000F908ECF2A813B814C815D8110E057FFE8
:1004C00008C050954095309521953F4F4F4F5F4F55
:1004D00011E080910001811729F010930001112390
:1004E000A1F0449AA8EEB3E00E94A10922EE34E004
:1004F00040E050E00E947309CA01B90121E0412F98
:100500000E94AE0082E08A8B63CF4498EBCF80914B
:10051000E10381115DCF8C859D8501979D878C8737
:10052000892BC9F484E08A8B0E94F60360E080E0A6
:100530000E946F0488E492E09F938F930E94860448
:1005400061E080E00E946F0488E392E09F938F93C4
:100550000E9486047BCF8E819F81A885B9858E8776
:100560009F87A88BB98B83E08A8B61E080E00E9433
:100570006F048D858F938C858F9387E592E09F9391
:100580008F930E94860462CF8E859F85A889B98942
:10059000AC01BD0141505109610971094E875F8766
:1005A000688B798B892B8A2B8B2B09F011CF81E0FB
:1005B000AACFCF93DF93DC011E962C911E9730E0DB
:1005C000EC01C20FD31F9A859F5F220F331FFD01DD
:1005D000E20FF31F0190F081E02D8381891301C0A8
:1005E00090E02481358182E1989F200D311D1124F6
:1005F00019963C932E9318979A87DF91CF9108957F
:10060000CF93DF93DC011E962C911E9730E0EC0116
:10061000C20FD31F9A859150220F331FFD01E20FA5
:10062000F31F0190F081E02D9F3F11F493819150D1
:100630002481358182E1989F200D311D1124199666
:100640003C932E9318979A87DF91CF910895CF937B
:10065000DF93FC01A085B18512968C9112978111D0
:1006600016C086858F5F868790E0EC01CC0FDD1F7A
:10067000CE0FDF1FB983A88314962D913C9131874B
:100680002087E80FF91F1286DF91CF9108958230FD
:10069000D9F713968D919C919093E0038093DF039B
:1006A000F3CFCF93DF93EC018091BD02882321F03B
:1006B00081508093BD0225C00E942501843051F4F1
:1006C000CE0102960E940003CE0102960E945701BD
:1006D0008AEFEFCF813029F4CE0102960E94D90231
:1006E000F3CF853029F4CE0102960E942703ECCF88
:1006F000823029F4CE0102960E945300E5CF811189
:10070000E3CFDF91CF9108950C9453009BB19F707C
:1007100040E1849F90011124922B9BB92998299A3A
:10072000299885ED8A95F1F700000895CF93C82F99
:10073000662351F0289A8C2F82958F700E94860331
:100740008C2FCF910C9486032898F5CF60E00C9401
:10075000960361E00C9496038AB1806F8AB9209A5F
:10076000219A8FE59AEE0197F1F700C000002898D2
:1007700029988FE090E40197F1F700C0000083E032
:100780000E9486038FE090E40197F1F700C000001B
:1007900083E00E9486038FE090E40197F1F700C0A8
:1007A000000083E00E9486038FE090E40197F1F758
:1007B00000C0000082E00E94860388E20E94A60337
:1007C0001092D10288E00C94A6038091D102982F58
:1007D00094609093D1028C600C94A6038091D10216
:1007E0008B7F8093D10288600C94A60381E00E94E5
:1007F000A6038FE39FE10197F1F700C00000089581
:1008000082E00E94A6038FE39FE10197F1F700C009
:10081000000008958091D102982F91609093D102A9
:1008200089600C94A6038091D1028E7F8093D102BF
:1008300088600C94A6038091D102982F92609093C7
:10084000D1028A600C94A6038091D1028D7F80939F
:10085000D10288600C94A60388E10C94A6038CE175
:100860000C94A6038091D102982F92609093D102AC
:1008700086600C94A6038091D1028D7F8093D10273
:1008800084600C94A6038091D102982F916090937C
:10089000D10285600C94A6038091D1028E7F809353
:1008A000D10284600C94A6030F931F93CF93DF9320
:1008B0008B0128E0829FC0011124887380640E940C
:1008C000A603E801085F1F4F89910E94A903C01782
:1008D000D107D1F7DF91CF911F910F910895611149
:1008E00061E0E62FF0E0E352FE4F9081890F8068CF
:1008F0000C94A603CF93DF93EC018991811103C07F
:10090000DF91CF9108950E94A903F7CFCF93DF9392
:10091000CDB7DEB79E012B5F3F4FF9014191519159
:100920009F0161E170E080EC92E00E94AC0980ECF4
:1009300092E00E947A04DF91CF910895E1EBF0E01C
:1009400010821092B20091E09093B3008195809351
:10095000B40083E38093B0008AE08083539A0895C3
:100960001F920F920FB60F9211242F933F934F9324
:100970008F939F93EF93FF932091C0003091C60017
:100980008091D40290E001968F7799274091D3020D
:1009900048171906A9F028718093D40289529D4FF7
:1009A000FC0130832093D202FF91EF919F918F91B0
:1009B0004F913F912F910F900FBE0F901F90189560
:1009C00022E0F0CF1F920F920FB60F9211248F9357
:1009D0009F93EF93FF939091D6028091D502981741
:1009E000B9F08091D50290E001968F779927809396
:1009F000D502895A9C4FFC0180818093C600FF91EB
:100A0000EF919F918F910F900FBE0F901F901895AF
:100A10008091C1008F7D8093C100F1CFF894109236
:100A2000D6021092D5021092D4021092D30278947A
:100A300097FF04C022E02093C0009F779093C500E9
:100A40008093C40088E98093C10086E08093C2004F
:100A50000895F8949091D4028091D302981304C021
:100A6000789480E091E0089578948091D30290E0AA
:100A700001968F7799278093D30289529D4FFC016D
:100A800020819091D202892F90E0982F8827820FA1
:100A9000911D0895F8949091D4028091D3029813F7
:100AA00004C0789480E091E008957894E091D302B6
:100AB000F0E03196EF77FF27E952FD4F20819091CA
:100AC000D202892F90E0982F8827820F911D0895D8
:100AD0002091D60230E02F5F3F4F2F773327909140
:100AE000D50292171306D9F3F901E95AFC4F808316
:100AF0002093D6028091C10080628093C100089546
:100B0000CF93DF93EC018991811103C0DF91CF91E5
:100B100008950E946805F7CFCF93DF93EC01FE01A3
:100B200084912196811103C0DF91CF9108950E9495
:100B30006805F5CFF8948091D4022091D30278947F
:100B400090E080589F4F821B91098F7799270895D5
:100B5000F8948091D3028093D402789408952F92D0
:100B60003F924F925F926F927F928F929F92AF923D
:100B7000BF92CF92DF92EF92FF920F931F93CF938A
:100B8000DF93CDB7DEB728970FB6F894DEBF0FBE60
:100B9000CDBF6B017C011A013E832D8318870F8323
:100BA000F7FEEEC02FEFC216D206E206F20609F4F7
:100BB000EDC0F094E094D094C094C11CD11CE11C11
:100BC000F11C8F8198859C0150E040E06FEB7FEB3A
:100BD00080E090E00E94730929833A834B835C8311
:100BE0003093EC032093EB03910150E040E064EF7D
:100BF00075E387E592E00E947309DA01C901E0E13B
:100C0000F0E0412C512C612C10E4712E20E030E0FA
:100C1000A90149015A01840C951CA61CB71C60E06F
:100C200088159905AA05BB0528F088199909AA090C
:100C3000BB0961E05695479537952795662321F0C6
:100C4000240D351D461D571D62E076946794579418
:100C500047946A95D1F73197E1F6281739074A0783
:100C60005B0720F42F5F3F4F4F4F5F4FAAE9B6E07D
:100C70000E94A10924E6822E912CA12CB12CA50161
:100C800094010E94510989013093E4032093E30306
:100C90002F813885D9010E9492092B013C019101D5
:100CA000A7E2B0E00E949209A50194010E94730995
:100CB000C301B2010E94730938872F83232B21F4CB
:100CC00021E030E038872F838D819E814C01B12C4B
:100CD000A12CA5019C01C701B6010E9441092D81EB
:100CE0003E81220D331D50E040E00E947309211522
:100CF000310509F490C08F8198858217930708F415
:100D00008DC02C193D093093EA032093E9038091AB
:100D1000E9039091EA03892B31F48FEF9FEF9093D1
:100D2000EA038093E9038091E9039091EA03092E95
:100D3000000CAA0BBB0B8C0D9D1DAE1DBF1D80931F
:100D4000E5039093E603A093E703B093E803809153
:100D5000E20329813A812017310708F470C03093EB
:100D6000E4032093E303887F83608093E20310927F
:100D7000ED031092EE031092EF031092F0031DC0EA
:100D800031E0C316D104E104F10431F58FEF9FEF98
:100D9000DC018093ED039093EE03A093EF03B093F7
:100DA000F0038091E203887F82608093E20388EE03
:100DB00093E09093E4038093E30381E08093E10365
:100DC0008AE090E090938900809388008091810070
:100DD00083608093810006C0C114D104E104F10452
:100DE00009F0EFCE28960FB6F894DEBF0FBECDBF48
:100DF000DF91CF911F910F91FF90EF90DF90CF90F7
:100E0000BF90AF909F908F907F906F905F904F902A
:100E10003F902F90089521E030E073CF9101AF8192
:100E2000B8850E94920990958095709561957F4F45
:100E30008F4F9F4FA50194010E94730964CF887F53
:100E4000816093CFE2EEF3E08081887F808388E049
:100E50008093810082E080936F0008951F920F922B
:100E60000FB60F921124CF92DF92EF92FF922F9341
:100E70003F934F935F936F937F938F939F93AF9322
:100E8000BF93CF93DF93EF93FF932091E3033091D0
:100E9000E40330938900209388002091E2032770B7
:100EA0002130B1F108F1223009F401C1233009F4F5
:100EB000BFC0D093E403C093E303FF91EF91DF91B0
:100EC000CF91BF91AF919F918F917F916F915F91E2
:100ED0004F913F912F91FF90EF90DF90CF900F9027
:100EE0000FBE0F901F9018951092DB031092DC0339
:100EF0001092DD031092DE031092DA031092D903F0
:100F000020918100287F209381001092E103D1CFAE
:100F10008091B40081508093B200C090DB03D090E8
:100F2000DC03E090DD03F090DE038FEFC81AD80AEF
:100F3000E80AF80AC092DB03D092DC03E092DD03FA
:100F4000F092DE032091ED033091EE034091EF0328
:100F50005091F0032F5F3F4F4F4F5F4F2093ED03B2
:100F60003093EE034093EF035093F003C091E303FB
:100F7000D091E403BE0190E080E0660F771F881FE8
:100F8000991FE091D903F091DA036E0F7F1F811D45
:100F9000911DA2E0220F331F441F551FAA95D1F7C0
:100FA0002F5F3F4F4F4F5F4F0E947309C21BD30B00
:100FB0007093DA036093D9034091E5035091E603FF
:100FC0006091E7037091E803C416D506E606F706BC
:100FD000B8F04091E9035091EA03052E000C660B2E
:100FE000770B4093ED035093EE036093EF03709300
:100FF000F0032091E203287F22602093E20359CF7F
:101000002091EB033091EC032C173D0708F451CFEE
:10101000D093D803C093D7031092DA031092D90368
:101020008091E203887F83608093E203E90141CFEE
:101030008091B40081508093B2008091DB03909145
:10104000DC03A091DD03B091DE030196A11DB11D6B
:101050008093DB039093DC03A093DD03B093DE0366
:101060004091E5035091E6036091E7037091E80336
:10107000C091EB03D091EC0384179507A607B7073F
:1010800008F417CF8091E9039091EA03092E000C30
:10109000AA0BBB0B8093ED039093EE03A093EF0399
:1010A000B093F003C091D703D091D803A2CF809121
:1010B000B40081508093B2008091DB039091DC03F7
:1010C000A091DD03B091DE030196A11DB11D8093B7
:1010D000DB039093DC03A093DD03B093DE03C090A9
:1010E000ED03D090EE03E090EF03F090F0038FEF6C
:1010F000C81AD80AE80AF80AC092ED03D092EE03A3
:10110000E092EF03F092F003C091E303D091E40387
:10111000BE0190E080E0660F771F881F991F209125
:10112000D9033091DA03620F731F811D911DA7014E
:101130009601E2E0220F331F441F551FEA95D1F7B5
:101140002F5F3F4F4F4F5F4F0E947309C21BD30B5E
:101150007093DA036093D903F7FCABCE2091E203DE
:10116000287F4BCF80E284B987B1806387B90E9422
:10117000AC030E94E5030E94F60360E080E00E9459
:101180006F040E94100188E090E00E940E0580E448
:101190000E949E040E942207789483E091E090933D
:1011A00084018093830110928D01109291018091AE
:1011B00007019091080190938C0180938B0183E843
:1011C00091E00E94570181E891E09093E0038093C1
:1011D000DF0380E187BD82E084BD95E095BD80930B
:1011E0006E000CEA12E0C2E9D1E00E942905F82E57
:1011F0009C012227232BC9F72091BC02211110C08A
:101200002EE38213F2CF8EE30E9468058091BC0228
:101210008F5F8093BC021093BF020093BE02E5CFA4
:10122000E091BE02F091BF028193F093BF02E09380
:10123000BE02EC5BF24030F081E20E946805109241
:10124000BC02D3CF0E9468058BE3F812CECFE091A9
:10125000BE02F091BF0210821092BC028BE592E0B8
:101260000E948005ACEAB2E08BE0E4E9F1E0815055
:1012700029F4D093E003C093DF03B7CF9D919193FE
:10128000F6CFDB018F939F930E94A109BF91AF918D
:10129000A29F800D911DA39F900DB29F900D1124D0
:1012A0000895A1E21A2EAA1BBB1BFD010DC0AA1FA7
:1012B000BB1FEE1FFF1FA217B307E407F50720F0BF
:1012C000A21BB30BE40BF50B661F771F881F991F3A
:1012D0001A9469F760957095809590959B01AC0183
:1012E000BD01CF010895052E97FB1EF400940E94C6
:1012F0008A0957FD07D00E94510907FC03D04EF41C
:101300000C948A0950954095309521953F4F4F4F49
:101310005F4F089590958095709561957F4F8F4FA1
:101320009F4F0895A29FB001B39FC001A39F700D6E
:10133000811D1124911DB29F700D811D1124911DDD
:1013400008950E949209A59F900DB49F900DA49FAF
:10135000800D911D11240895AEE0B0E0E2EBF9E0BC
:101360000C945D0C8C01FA0186E08C831A8309834E
:1013700077FF02C060E070E8CB0101979E838D8308
:10138000A901BF01CE0101960E94D8094D815E815D
:1013900057FD0AC02F813885421753070CF49A0174
:1013A000F801E20FF31F10822E96E4E00C94790C02
:1013B000ACE0B0E0EEEDF9E00C944F0C6C017B0179
:1013C0008A01FC0117821682838181FFBEC1CE0192
:1013D00001964C01F6019381F70193FD859193FFEE
:1013E00081917F01882309F4ACC1853239F493FDE2
:1013F000859193FF81917F01853229F4B60190E0B8
:101400000E94C10BE7CF512C312C20E02032A0F4F8
:101410008B3269F030F4803259F0833269F4206104
:101420002CC08D3239F0803339F4216026C022601F
:10143000246023C0286021C027FD27C030ED380F6D
:101440003A3078F426FF06C0FAE05F9E300D112492
:10145000532E13C08AE0389E300D1124332E2062A3
:101460000CC08E3221F426FD6CC1206406C08C367F
:1014700011F4206802C0883641F4F70193FD85918C
:1014800093FF81917F018111C1CF982F9F7D95544A
:10149000933028F40C5F1F4F9FE399830DC0833670
:1014A00031F0833771F0833509F05BC022C0F80159
:1014B000808189830E5F1F4F44244394512C540133
:1014C00015C03801F2E06F0E711CF801A080B180E8
:1014D00026FF03C0652D70E002C06FEF7FEFC501EE
:1014E0002C870E94B60B2C0183012C852F77222E8E
:1014F00017C03801F2E06F0E711CF801A080B180B6
:1015000026FF03C0652D70E002C06FEF7FEFC501BD
:101510002C870E94AB0B2C012C852068222E830186
:1015200023FC1BC0832D90E048165906B0F4B60189
:1015300080E290E00E94C10B3A94F4CFF50127FCC1
:10154000859127FE81915F01B60190E00E94C10B59
:1015500031103A94F1E04F1A51084114510471F7D7
:10156000E6C0843611F0893639F5F80127FF07C047
:1015700060817181828193810C5F1F4F08C06081FF
:101580007181072E000C880B990B0E5F1F4F2F7671
:10159000722E97FF09C090958095709561957F4F49
:1015A0008F4F9F4F2068722E2AE030E0A4010E94E6
:1015B000F10BA82EA81844C0853729F42F7EB22E2F
:1015C0002AE030E025C0F22FF97FBF2E8F36C1F020
:1015D00018F4883579F0B5C0803719F0883721F0D4
:1015E000B0C02F2F2061B22EB4FE0DC08B2D8460B1
:1015F000B82E09C024FF0AC09F2F9660B92E06C0DE
:1016000028E030E005C020E130E002C020E132E017
:10161000F801B7FE07C060817181828193810C5F00
:101620001F4F06C06081718180E090E00E5F1F4F08
:10163000A4010E94F10BA82EA818FB2DFF777F2E86
:1016400076FE0BC0372D3E7FA51450F474FE0AC001
:1016500072FC08C0372D3E7E05C0BA2C372D03C062
:10166000BA2C01C0B52C34FF0DC0FE01EA0DF11DEE
:101670008081803311F4397E09C032FF06C0B394F3
:10168000B39404C0832F867809F0B39433FD13C05C
:1016900030FF06C0B31498F43A0C532C5B1810C0FA
:1016A000B31470F4B60180E290E03C870E94C10B55
:1016B000B3943C85F5CFB31418F43B1802C05A2CF0
:1016C000312C34FF12C0B60180E390E03C870E94C9
:1016D000C10B3C8532FF17C031FD03C088E790E0A5
:1016E00002C088E590E0B6010CC0832F867859F0DF
:1016F00031FF02C08BE201C080E237FD8DE2B6010E
:1017000090E00E94C10BA51438F4B60180E390E08C
:101710000E94C10B5A94F7CFAA94F401EA0DF11D6F
:101720008081B60190E00E94C10BA110F5CF33205B
:1017300009F450CEB60180E290E00E94C10B3A94C9
:10174000F6CFF6018681978102C08FEF9FEF2C962E
:10175000E2E10C946B0CFC010590615070400110AB
:10176000D8F7809590958E0F9F1F0895FC016150CA
:10177000704001900110D8F7809590958E0F9F1FB3
:1017800008950F931F93CF93DF93182F092FEB0129
:101790008B8181FD03C08FEF9FEF1EC082FF0FC0C2
:1017A0002E813F818C819D812817390774F4E8814F
:1017B000F981CF01019699838883108306C0E8855B
:1017C000F985812F0995892B31F78E819F810196AB
:1017D0009F838E83812F902FDF91CF911F910F9147
:1017E0000895FA01AA27283051F1203181F1E894B7
:1017F0006F936E7F6E5F7F4F8F4F9F4FAF4FB1E004
:101800003ED0B4E03CD0670F781F891F9A1FA11DFE
:10181000680F791F8A1F911DA11D6A0F711D811DFF
:10182000911DA11D20D009F468943F912AE0269FC4
:1018300011243019305D3193DEF6CF010895462F23
:101840004770405D4193B3E00FD0C9F7F6CF462F04
:101850004F70405D4A3318F0495D31FD405241936D
:1018600002D0A9F7EACFB4E0A6959795879577952A
:101870006795BA95C9F700976105710508959B01B1
:10188000AC010A2E06945795479537952795BA953A
:10189000C9F7620F731F841F951FA01D08952F9213
:1018A0003F924F925F926F927F928F929F92AF92F0
:1018B000BF92CF92DF92EF92FF920F931F93CF933D
:1018C000DF93CDB7DEB7CA1BDB0B0FB6F894DEBFD4
:1018D0000FBECDBF09942A88398848885F846E84FA
:1018E0007D848C849B84AA84B984C884DF80EE8044
:1018F000FD800C811B81AA81B981CE0FD11D0FB64D
:10190000F894DEBF0FBECDBFED010895F894FFCF70
:10191000FFFAFF5E02000215010000000000000057
:10192000000000000068020004390100000000000F
:10193000000000000000006E020002A5010000008F
:101940000000000000000000007702029201000089
:1019500000000000000000000000007B0201000009
:1019600000000000000000000000000000830201F1
:101970000000000000000000000000000000008ED9
:101980000201000000000000000000000000000054
:1019900000510300000000000000000000000000F3
:1019A00000008F01D0070000E803000003000000E2
:1019B0000000000000990201CD01E2040000204E69
:1019C0000000E2040000019F0201D1018813000021
:1019D000803801008813000002000000001027007A
:1019E00000409C000080380100204E0000004014A0
:1019F000545E2D2000202020003C2000203E00537B
:101A00007461636B2052756E6E696E670025346475
:101A1000205374657073206C656674005374616341
:101A20006B205061757365640053454C45435420E9
:101A3000746F20726573756D6500537461636B20FC
:101A400041626F7274656400416E79206B65792024
:101A5000746F206578697400537461636B20466904
:101A60006E697368656400253464000D0A004D6179
:101A7000696E204D656E7500537461636B0053652C
:101A80007474696E67730052756E00232053746519
:101A90007073005374657020446973742E00506134
:101AA0007573652054696D65005370656564004108
:0C1AB0006363656C65726174696F6E00A1
:00000001FF
